:020000040000FA
:0400000012EF31F0DA
:106012001400FA00E803016E01C083FF120094929B
:106022009494030ECA12CA840C0EBD120C0EBA123C
:10603200120001500302F3CF05F0F4CF06F0015035
:106042000402F350062602500302F350062605C04E
:1060520001F006C002F012000D6E84820D500CECAD
:1060620030F08484000E086E030E076E40EC31F0AF
:106072008492000E086E030E076E40EC31F08482AB
:1060820012000D6E84820D500CEC30F08494000EE0
:10609200086E030E076E40EC31F08492000E086E1B
:1060A200030E076E40EC31F084821200010E42ECC6
:1060B20030F0800E42EC30F0010E42EC30F0C00EB7
:1060C20042EC30F0010E42EC30F0900E42EC30F037
:1060D200010E42EC30F0D00E42EC30F0120001C062
:1060E20003F002C004F078EF30F0014A022A01C046
:1060F200F6FF02C0F7FF0800F5500009D8A484EFAC
:1061020030F086EF30F076EF30F00350015C016E34
:1061120004500258026E1200000E026E020E016E50
:10612200000E046E000E036E34EC37F0000E026EA9
:10613200030E016E000E046E000E036E34EC37F097
:10614200000E026E040E016E000E046E000E036E4F
:1061520034EC37F0000E026E050E016E000E046E76
:10616200000E036E34EC37F0000E956E1200106EC6
:106172000F50D8A4BFEF30F0C1EF30F0C3EF30F0D2
:1061820010C076F00F04D8A4C9EF30F0CBEF30F096
:10619200CDEF30F010C075F0020E0F18D8A4D4EF76
:1061A20030F0D6EF30F0D8EF30F010C074F0030EBC
:1061B2000F18D8A4DFEF30F0E1EF30F0E3EF30F06A
:1061C20010C073F0120084928494000E086E140EB4
:1061D200076E40EC31F08482380E42EC30F0000E53
:1061E200086E050E076E40EC31F0380E42EC30F0CE
:1061F200000E086E010E076E40EC31F0380E42ECD4
:1062020030F0080E42EC30F00F0E42EC30F0010E8E
:1062120042EC30F0380E42EC30F0800E42EC30F0BE
:106222001200A60EF66E640EF76E000EF86E00EE09
:1062320080F010EE7CF00900F5CFEEFFE550E15062
:10624200FAE1120EF66E600EF76E000EF86E00EEB8
:1062520079F010EE06F00900F5CFEEFFE550E150BF
:10626200FAE10001FD6BFC6B00EE6FF00A0EEE6AC4
:10627200E806FDE1000EF86E000114EF36F0000EA4
:106282000A6E000E096E66EF31F0000E0B6E280EDC
:106292000B644EEF31F050EF31F052EF31F064EF1A
:1062A20031F0000E0C6E020E0C645AEF31F05CEF0E
:1062B20031F05EEF31F061EF31F00C2A54EF31F042
:1062C2000B2A48EF31F0094A0A2A0750095C0850A4
:1062D2000A58D8A06FEF31F071EF31F046EF31F08C
:1062E2001200C00E42EC30F0EB0E0E6E7F0E0F6EFF
:1062F20017EC32F0900E42EC30F0D50E0E6E7F0E9F
:106302000F6E17EC32F07DC007F07EC008F040EC53
:1063120031F0780E136E7B0E146E82EC39F0D89049
:106322007D34076E7E34086E40EC31F0010E42EC93
:1063320030F0800E42EC30F0C70E0E6E7F0E0F6E04
:1063420017EC32F0C00E42EC30F012000A6E010E71
:10635200CB24016E026A000E02220AC003F0046A14
:106362001AEC30F001C00BF002C00CF00BC001F0CF
:106372000CC002F0000E046E190E036EDDEC31F05B
:1063820001C00BF002C00CF0FF0E0B16030E0C1630
:106392000BC008F00CC009F0D89009320832D8902E
:1063A200093208320850BE6E0BC008F0030E081600
:1063B2000838F00BBD121200000E066E000E056EBC
:1063C20003500410D8B4E8EF31F0EAEF31F012EFE5
:1063D20032F0010E076EF2EF31F0D8900336043638
:1063E200072A04AEF7EF31F0F9EF31F0EEEF31F0BA
:1063F200D890053606360350015C04500258D8A0E6
:1064020005EF32F007EF32F00CEF32F00350015E8D
:106412000450025A0580D89004320332072EF9EF55
:1064220031F005C001F006C002F01200000E126E3B
:1064320034EF32F012500E24106E000E0F20116E47
:1064420010C0F6FF11C0F7FFF86A050EF76403D01B
:106452000800F55005D0F6CFE9FFF7CFEAFFEF507D
:106462002DEC30F0122A12500E24106E000E0F2066
:10647200116E10C0F6FF11C0F7FFF86A050EF7643F
:1064820003D00800F55005D0F6CFE9FFF7CFEAFFB9
:10649200EF500009D8A450EF32F052EF32F01BEF68
:1064A20032F012000200060005000500040005009B
:1064B20007000600070003000300060007000300B0
:1064C20007000200060007000300060002000200A7
:1064D2000600010007000700820789078A078C0768
:1064E2008E079107930794079907A107A207A807A8
:1064F200AC07AF07B007B407BA07C107C507C6079D
:10650200D207DA07E007E207E407E5078000C000E8
:10651200E000F000F800FC00FE000F00050096000D
:10652200000E936E000E816E0BC001F00CC002F0E3
:106532009BEC33F001C00FF002C010F0000E126E9F
:10654200000E116ED8901134D96E1234DA6EB40E78
:10655200D926000EDA220F50DE1807E11050DE189D
:10656200D8A4B6EF32F0B8EF32F0D0EF32F0D890D4
:106572001134D96E1234DA6E800ED926000EDA2268
:10658200DECF0DF0DDCF0EF0D8900D360E36E60ED2
:106592000D24D96E000E0E20DA6EDF50816E114A84
:1065A200122A12BEDEEF32F0125009E11A0E115C0D
:1065B200D8A0DEEF32F0E0EF32F0A3EF32F01200BB
:1065C200000E0E6E0ABEEAEF32F0E8EF32F0F0EFA4
:1065D20032F0096C0A1ED8B00A2A010E0E6E0CBEE9
:1065E200F7EF32F0F5EF32F0FBEF32F00B6C0C1EEE
:1065F200D8B00C2A0B500C10D8B402EF33F004EFD1
:1066020033F028EF33F0010E0D6E0CEF33F0D8901B
:106612000B360C360D2A0CAE11EF33F013EF33F0BC
:1066220008EF33F00B50095C0C500A58D8A01CEF4D
:1066320033F01EEF33F022EF33F00B50095E0C50B3
:106642000A5AD8900C320B320D2E13EF33F00E5043
:10665200D8B42EEF33F030EF33F034EF33F0096C6F
:106662000A1ED8B00A2A09C009F00AC00AF01200AC
:10667200000E066E04BE42EF33F040EF33F048EFF7
:1066820033F0036C041ED8B0042A010E066E02BE5B
:106692004FEF33F04DEF33F055EF33F0016C021E44
:1066A200D8B0022A010E061A000E086E000E076EFE
:1066B20003500410D8B460EF33F062EF33F08AEF86
:1066C20033F0010E056E6AEF33F0D89003360436CC
:1066D200052A04AE6FEF33F071EF33F066EF33F05B
:1066E200D890073608360350015C04500258D8A0EF
:1066F2007DEF33F07FEF33F084EF33F00350015E30
:106702000450025A0780D89004320332052E71EFEA
:1067120033F00650D8B490EF33F092EF33F096EFA7
:1067220033F0076C081ED8B0082A07C001F008C071
:1067320002F0120001C005F002C006F0000E086E61
:10674200000E076E000E0A6E000E096ED890093414
:10675200D96E0A34DA6EB40ED926000EDA2201504E
:10676200DE1807E10250DE18D8A4BAEF33F0BCEF0E
:1067720033F0C2EF33F001C001F002C002F002EFC9
:1067820034F0D8900934D96E0A34DA6EB40ED926B0
:10679200000EDA220550DE1807E10650DE18D8A4F2
:1067A200D5EF33F0D7EF33F0DDEF33F005C001F072
:1067B20006C002F002EF34F0094A0A2A0ABEEBEFE1
:1067C20033F00A5009E11A0E095CD8A0EBEF33F05E
:1067D200EDEF33F0A7EF33F0014A022A0506D8A005
:1067E2000606074A082A08BE00EF34F0085009E1FD
:1067F2001A0E075CD8A000EF34F002EF34F0A3EFDA
:1068020033F01200000E2F6E000E2E6E0F0E956EDC
:10681200000E0E6E000E0D6E2FEC35F0166E300E61
:1068220016242C6E2D6A000E2D22000E956E2C5011
:106832002DEC30F0D00E166EFF0E176E2CC018F035
:106842002DC019F01650182617501922D8902E3440
:10685200D96E2F34DA6E240ED926000EDA2218C031
:10686200DEFF19C0DDFF2E4A2F2A2FBE42EF34F081
:106872002F5009E1040E2E5CD8A042EF34F044EF11
:1068820034F007EF34F024C001F025C002F0030E0B
:10689200046EE80E036E1AEC30F001C01AF002C06A
:1068A2001BF026C001F027C002F0000E046E640E39
:1068B200036E1AEC30F001C01CF002C01DF028C0BB
:1068C20001F029C002F0000E046E0A0E036E1AECEB
:1068D20030F001C01EF002C01FF02AC020F02BC011
:1068E20021F01C501A24166E1D501B20176E1E50CC
:1068F20016261F50172220501624226E21501720D0
:10690200236E22C014F023C015F01200000E956E03
:10691200000E026E020E016E000E046E000E036E79
:106922005BEC38F0000E026E030E016E000E046E78
:10693200000E036E5BEC38F0000E026E040E016E68
:10694200000E046E000E036E5BEC38F0000E026E59
:10695200050E016E000E046E000E036E5BEC38F045
:10696200000E836E11EF35F05D0E7624F66EF76A37
:10697200790EF7220800F5CF83FF000E026E020E99
:10698200016E000E046E010E036E5BEC38F0010E18
:10699200776E2EEF35F05D0E7524F66EF76A790E7E
:1069A200F7220800F5CF83FF000E026E030E016E80
:1069B200000E046E010E036E5BEC38F0020E776E71
:1069C2002EEF35F05D0E7424F66EF76A790EF7221B
:1069D2000800F5CF83FF000E026E040E016E000E5A
:1069E200046E010E036E5BEC38F0030E776E2EEF31
:1069F20035F05D0E7324F66EF76A790EF722080001
:106A0200F5CF83FF000E026E050E016E000E046EBE
:106A1200010E036E5BEC38F0000E776E2EEF35F050
:106A22007750076E086A0850000AD8B41BEF35F099
:106A32000DEF35F00750000AD8B4B5EF34F0010A73
:106A4200D8B4CCEF34F0030AD8B4E3EF34F0010A3F
:106A5200D8B4FAEF34F00DEF35F01200000E106EDC
:106A6200000E0F6E000E126E81CF11F0E0EF35F0C6
:106A7200000E136E6D0E1324F66EF76A790EF7226E
:106A82000800F550FF0A811283B64AEF35F04CEF49
:106A920035F064EF35F0000E086E0F0E076E40EC15
:106AA20031F083B657EF35F059EF35F064EF35F03A
:106AB20083A65EEF35F060EF35F059EF35F013281D
:106AC200126ED6EF35F083B469EF35F06BEF35F027
:106AD20084EF35F0000E086E0F0E076E40EC31F0B9
:106AE20083B476EF35F078EF35F084EF35F083A498
:106AF2007DEF35F07FEF35F078EF35F01350040F6E
:106B0200126ED6EF35F083B289EF35F08BEF35F0A8
:106B1200A4EF35F0000E086E0F0E076E40EC31F058
:106B220083B296EF35F098EF35F0A4EF35F083A2FB
:106B32009DEF35F09FEF35F098EF35F01350070FCA
:106B4200126ED6EF35F083B0A9EF35F0ABEF35F02A
:106B5200C4EF35F0000E086E0F0E076E40EC31F0F8
:106B620083B0B6EF35F0B8EF35F0C4EF35F083A05F
:106B7200BDEF35F0BFEF35F0B8EF35F013500A0F27
:106B8200126ED6EF35F06D0E1324F66EF76A790E9B
:106B9200F7220800F5508116132A020E1364D4EF6F
:106BA20035F0D6EF35F03BEF35F0000E086E050EEE
:106BB200076E40EC31F0050E0F26000E10220D502C
:106BC2000F5C0E501058D8A0E9EF35F0EBEF35F01E
:106BD200F4EF35F00D500E10D8A4F2EF35F0F4EFCB
:106BE20035F0FCEF35F01250D8B4FAEF35F0FCEF87
:106BF20035F039EF35F01250D8A402EF36F004EF39
:106C020036F005EF36F012680B0E1218D8A40CEF0E
:106C120036F00EEF36F010EF36F0000E126E11C0A5
:106C220081FF12501200060EC16E010E936E000E0D
:106C3200946E000E956E000E966EF80E936EE4EC56
:106C420030F072EC31F08DEC30F010EC30F07DC0B1
:106C520007F07EC008F040EC31F003EC34F0070E90
:106C62006C6EE70E6B6E070E026EE70E016E9BEC0A
:106C720033F001C06DF002C06EF0000E686E000EBF
:106C8200676E000E0F6E030E046EE80E036E6DC08B
:106C920001F06EC002F039EC33F001C009F002C01D
:106CA2000AF0000E0C6E0A0E0B6EE1EC32F0095087
:106CB200B8EC30F0010E0F6E000E046E640E036E1F
:106CC2006DC001F06EC002F039EC33F001C009F082
:106CD20002C00AF0000E0C6E0A0E0B6EE1EC32F0EE
:106CE2000950B8EC30F0020E0F6E000E046E0A0E60
:106CF200036E6DC001F06EC002F039EC33F001C0DA
:106D020009F002C00AF0000E0C6E0A0E0B6EE1ECE6
:106D120032F00950B8EC30F0030E0F6E6DC009F07E
:106D22006EC00AF0000E0C6E0A0E0B6EE1EC32F031
:106D32000950B8EC30F087EC34F0674A682A68BE34
:106D4200ACEF36F0E80E675C030E6858D8A0ACEFE3
:106D520036F0AEEF36F042EF36F0000E6A6E5F0E9E
:106D6200696E28EF37F06950A7EC31F0800E42ECE3
:106D720030F0010E42EC30F0C00E42EC30F0E00E8A
:106D82000E6E7F0E0F6E17EC32F0900E42EC30F06A
:106D9200B90E0E6E7F0E0F6E17EC32F07DC007F04B
:106DA2007EC008F040EC31F06BC061F06CC062F064
:106DB200AEEC3AF07DC007F07EC008F040EC31F056
:106DC200120E136E7A0E146E82EC39F06BC00BF059
:106DD2006CC00CF091EC32F0D8907D34076E7E34AA
:106DE200086E40EC31F057EC30F0800E42EC30F09F
:106DF200F50E0E6E7F0E0F6E17EC32F0000E6A6EFD
:106E0200000E696E000EA7EC31F0900E42EC30F0ED
:106E1200990E0E6E7F0E0F6E17EC32F0D00E42EC12
:106E220030F0AA0E0E6E7F0E0F6E17EC32F07DC0A0
:106E320001F07EC002F0000E046E050E036E1AEC25
:106E420030F001C007F002C008F040EC31F05F0EF4
:106E520069186A10D8B430EF37F032EF37F0B4EF78
:106E620036F000EF00F002BE42EF37F0025007E1C9
:106E7200080E015CD8B040EF37F042EF37F06CEF0C
:106E820037F003500410D8B449EF37F04BEF37F026
:106E92005BEF37F001C005F0010E066E052A54EFD4
:106EA20037F0D8900636052E52EF37F00650921280
:106EB2005AEF38F001C005F0010E066E052A64EFA4
:106EC20037F0D8900636052E62EF37F00650FF0AEB
:106ED20092165AEF38F002BE7AEF37F0025007E10D
:106EE200100E015CD8B078EF37F07AEF37F0A8EFE8
:106EF20037F003500410D8B481EF37F083EF37F046
:106F020095EF37F001C005F0F80E0526010E066E6A
:106F1200052A8EEF37F0D8900636052E8CEF37F023
:106F2200065093125AEF38F001C005F0F80E05260C
:106F3200010E066E052AA0EF37F0D8900636052E10
:106F42009EEF37F00650FF0A93165AEF38F002BE52
:106F5200B6EF37F0025007E1180E015CD8B0B4EF7B
:106F620037F0B6EF37F0E4EF37F003500410D8B43F
:106F7200BDEF37F0BFEF37F0D1EF37F001C005F0CA
:106F8200F00E0526010E066E052ACAEF37F0D890DC
:106F92000636052EC8EF37F0065094125AEF38F035
:106FA20001C005F0F00E0526010E066E052ADCEF83
:106FB20037F0D8900636052EDAEF37F00650FF0A82
:106FC20094165AEF38F002BEF2EF37F0025007E1A2
:106FD200200E015CD8B0F0EF37F0F2EF37F020EF7F
:106FE20038F003500410D8B4F9EF37F0FBEF37F064
:106FF2000DEF38F001C005F0E80E0526010E066E11
:10700200052A06EF38F0D8900636052E04EF38F040
:10701200065095125AEF38F001C005F0E80E052629
:10702200010E066E052A18EF38F0D8900636052EA6
:1070320016EF38F00650FF0A95165AEF38F002BEE6
:107042002EEF38F0025007E1280E015CD8B02CEF89
:1070520038F02EEF38F05AEF38F003500410D8B45D
:1070620035EF38F037EF38F049EF38F001C005F06E
:10707200E00E0526010E066E052A42EF38F0D89082
:107082000636052E40EF38F0065096125AEF38F0C9
:1070920001C005F0E00E0526010E066E052A54EF2A
:1070A20038F0D8900636052E52EF38F00650FF0A17
:1070B2009616120002BE69EF38F0025007E1080E80
:1070C200015CD8B067EF38F069EF38F093EF38F031
:1070D20003500410D8B470EF38F072EF38F082EF3A
:1070E20038F001C005F0010E066E052A7BEF38F07C
:1070F200D8900636052E79EF38F00650801281EFCF
:1071020039F001C005F0010E066E052A8BEF38F04A
:10711200D8900636052E89EF38F00650FF0A801601
:1071220081EF39F002BEA1EF38F0025007E1100EF4
:10713200015CD8B09FEF38F0A1EF38F0CFEF38F014
:10714200F80E0126FF0E022203500410D8B4ACEF51
:1071520038F0AEEF38F0BEEF38F001C005F0010EA6
:10716200066E052AB7EF38F0D8900636052EB5EF31
:1071720038F00650811281EF39F001C005F0010E9E
:10718200066E052AC7EF38F0D8900636052EC5EFF1
:1071920038F00650FF0A811681EF39F002BEDDEFAA
:1071A20038F0025007E1180E015CD8B0DBEF38F07E
:1071B200DDEF38F00BEF39F0F00E0126FF0E022260
:1071C20003500410D8B4E8EF38F0EAEF38F0FAEFE1
:1071D20038F001C005F0010E066E052AF3EF38F013
:1071E200D8900636052EF1EF38F00650821281EF64
:1071F20039F001C005F0010E066E052A03EF39F0E1
:10720200D8900636052E01EF39F00650FF0A821695
:1072120081EF39F002BE19EF39F0025007E1200E7A
:10722200015CD8B017EF39F019EF39F047EF39F0B8
:10723200E80E0126FF0E022203500410D8B424EFF8
:1072420039F026EF39F036EF39F001C005F0010EC2
:10725200066E052A2FEF39F0D8900636052E2DEF4F
:1072620039F00650831281EF39F001C005F0010EAA
:10727200066E052A3FEF39F0D8900636052E3DEF0F
:1072820039F00650FF0A831681EF39F002BE55EF3E
:1072920039F0025007E1280E015CD8B053EF39F003
:1072A20055EF39F081EF39F0E00E0126FF0E022290
:1072B20003500410D8B460EF39F062EF39F072EF86
:1072C20039F001C005F0010E066E052A6BEF39F0A8
:1072D200D8900636052E69EF39F00650841281EFF8
:1072E20039F001C005F0010E066E052A7BEF39F078
:1072F200D8900636052E79EF39F00650FF0A84162B
:107302001200000E2B6E000E3C6E000E4D6E000E33
:107312005E6E57EC30F013C001F014C002F070EC56
:1073220030F0025009E1110E015CD8A09BEF39F058
:107332009DEF39F0ADEF3AF0000E606E000E5F6E19
:1073420075EF3AF05F501324156E60501420166EDC
:1073520015C0F6FF16C0F7FF0800F5500009D8A4C3
:10736200B5EF39F0B7EF39F0C3EF39F013C001F0E0
:1073720014C002F070EC30F001C05FF002C060F0A7
:1073820073EF3AF060BED1EF39F0605007E1100EB2
:107392005F5CD8B0CFEF39F0D1EF39F0E6EF39F0DA
:1073A2005F501324156E60501420166E15C0F6FF40
:1073B20016C0F7FF1B0E5F24D96E000E6020DA6E36
:1073C2000800F5CFDFFF73EF3AF060BEF4EF39F05B
:1073D200605007E1200E5F5CD8B0F2EF39F0F4EFB5
:1073E20039F015EF3AF05F501324156E60501420F7
:1073F200166E15C0F6FF16C0F7FFF00E176EFF0EE1
:10740200186E5FC019F060C01AF017501926185094
:107412001A222C0E1924D96E000E1A20DA6E0800D8
:10742200F5CFDFFF73EF3AF060BE23EF3AF0605022
:1074320007E1300E5F5CD8B021EF3AF023EF3AF06B
:1074420044EF3AF05F501324156E60501420166E0C
:1074520015C0F6FF16C0F7FFE00E176EFF0E186E8E
:107462005FC019F060C01AF01750192618501A227E
:107472003D0E1924D96E000E1A20DA6E0800F5CFDF
:10748200DFFF73EF3AF060BE52EF3AF0605007E16F
:10749200400E5F5CD8B050EF3AF052EF3AF073EF23
:1074A2003AF05F501324156E60501420166E15C00A
:1074B200F6FF16C0F7FFD00E176EFF0E186E5FC0F4
:1074C20019F060C01AF01750192618501A224E0EE1
:1074D2001924D96E000E1A20DA6E0800F5CFDFFFEC
:1074E20073EF3AF05F4A602A13C001F014C002F051
:1074F20070EC30F001505F5C02506058D8A084EF0D
:107502003AF086EF3AF0A3EF39F0010E42EC30F098
:10751200800E42EC30F01B0E0E6E000E0F6E17EC5A
:1075220032F0C00E42EC30F02C0E0E6E000E0F6EDA
:1075320017EC32F0900E42EC30F03D0E0E6E000E63
:107542000F6E17EC32F0D00E42EC30F04E0E0E6E93
:10755200000E0F6E17EC32F0120061C001F062C033
:1075620002F09BEC33F001C065F002C066F0710ED0
:10757200136E790E146E82EC39F037EF3CF0F40E94
:10758200136E7C0E146E82EC39F07DC007F07EC063
:1075920008F040EC31F0ADEF3CF0AB0E136E7D0E17
:1075A200146E82EC39F0C6EF3AF0490E136E7F0E7C
:1075B200146E82EC39F0C6EF3AF0CA0E136E7C0EEE
:1075C200146E82EC39F0C6EF3AF0420E136E7D0E65
:1075D200146E82EC39F0C6EF3AF0670E136E7E0E2F
:1075E200146E82EC39F0C6EF3AF0CC0E136E7D0EBB
:1075F200146E82EC39F0C6EF3AF02C0E136E7E0E4A
:10760200146E82EC39F0C6EF3AF0870E136E7F0EDD
:10761200146E82EC39F07DC007F07EC008F040ECB9
:1076220031F0320E136E7F0E146E82EC39F07DC093
:1076320007F07EC008F040EC31F01B0E136E7F0E97
:10764200146E82EC39F07DC007F07EC008F040EC89
:1076520031F09C0E136E7E0E146E82EC39F0ADEF9B
:107662003CF05E0E136E7F0E146E82EC39F0C6EFA4
:107672003AF0D00E136E7E0E146E82EC39F0C6EF25
:107682003AF0720E136E7C0E146E82EC39F0C6EF75
:107692003AF0670E136E7D0E146E82EC39F0000E16
:1076A200086E960E076E40EC31F0A00E136E7C0E43
:1076B200146E82EC39F0ADEF3CF0ED0E136E7D0EE0
:1076C200146E82EC39F0C6EF3AF0730E136E7F0E31
:1076D200146E82EC39F0C6EF3AF0B20E136E7B0EE6
:1076E200146E82EC39F0C6EF3AF0140E136E7C0E73
:1076F200146E82EC39F0C6EF3AF0030E136E7F0E71
:10770200146E82EC39F0C6EF3AF0EA0E136E7E0E7A
:10771200146E82EC39F0C6EF3AF0890E136E7D0ECC
:10772200146E82EC39F0C6EF3AF04A0E136E7E0EFA
:10773200146E82EC39F07DC007F07EC008F040EC98
:1077420031F01C0E136E7D0E146E82EC39F0ADEF2B
:107752003CF0820E136E7E0E146E82EC39F0C6EF90
:107762003AF00E0E136E7E0E146E82EC39F0C6EFF6
:107772003AF0B60E136E7E0E146E82EC39F0C6EF3E
:107782003AF0430E136E7C0E146E82EC39F07DC01B
:1077920007F07EC008F040EC31F0E40E136E7B0E71
:1077A200146E82EC39F07DC007F07EC008F040EC28
:1077B20031F0D40E136E790E146E82EC39F0ADEF07
:1077C2003CF03D0E136E7B0E146E82EC39F07DC0E0
:1077D20001F07EC002F0000E046E030E036E1AEC7E
:1077E20030F001C007F002C008F040EC31F0C70EE3
:1077F200136E7A0E146E82EC39F0D8907D34076ED7
:107802007E34086E40EC31F08B0E136E7A0E146EDD
:1078120082EC39F0D8907D34076E7E34086E40ECED
:1078220031F04F0E136E7A0E146E82EC39F0D8904E
:107832007D34076E7E34086E40EC31F0020E136E1A
:107842007B0E146E82EC39F07DC001F07EC002F036
:10785200000E046E030E036E1AEC30F001C007F046
:1078620002C008F040EC31F0ADEF3CF065C063F0CF
:1078720066C064F06450070AD8B442EF3CF0ADEF42
:107882003CF06350820AD8B4C0EF3AF00B0AD8B485
:10789200CEEF3AF0030AD8B4D6EF3AF0060AD8B4DB
:1078A200DEEF3AF0020AD8B4E6EF3AF01F0AD8B493
:1078B200EEEF3AF0020AD8B4F6EF3AF0070AD8B47B
:1078C200FEEF3AF00D0AD8B406EF3BF0380AD8B40E
:1078D20032EF3BF0030AD8B43AEF3BF00A0AD8B4CD
:1078E20042EF3BF0040AD8B44AEF3BF0030AD8B4A3
:1078F2005EEF3BF01F0AD8B466EF3BF0040AD8B43F
:107902006EEF3BF00E0AD8B476EF3BF07B0AD8B4A8
:107912007EEF3BF0040AD8B486EF3BF0030AD8B4FA
:107922008EEF3BF0140AD8B496EF3BF0080AD8B4B5
:10793200AAEF3BF03A0AD8B4B2EF3BF0020AD8B44D
:10794200BAEF3BF0060AD8B4C2EF3BF0010AD8B452
:10795200E2EF3BF0ADEF3CF01200003F065B4F66FA
:107962006D7D077F6F777C395E797101020400209B
:107972002020202020202020202020202020202005
:1079820020202020202020202020202020202020F5
:1079920020202020202020202020202020202020E5
:1079A20020202020202020202020202020202020D5
:1079B20020202020202020202020202020202020C5
:1079C20020202020202020202020202020202020B5
:1079D20020004361736F7320646520636F726F6E62
:1079E20061207669727573206E6F204272617369CD
:1079F2006C20636F6D206D616973206465202020A7
:107A02002020353030303030206D6F727465730055
:107A12005665726966697175652061202020202093
:107A2200696D706F7274616E63696120646F20208A
:107A3200616E6F206E6F73204C45447320202020AE
:107A420020202020202020202020202000436861A8
:107A520063696E6120656D2020202020206661769A
:107A6200656C61206E6F20524A2020202020202049
:107A72002020202020202020202020202020202004
:107A8200202020202020202000696E6963696F2059
:107A9200646120202020202020766163696E61636A
:107AA200616F206E6F2020202042726173696C200A
:107AB20020202020202020202020202020202020C4
:107AC200202020200043726973652073616E6974FF
:107AD20061726961206520676F7665726E616D659E
:107AE2006E74616C20202020202020202020202065
:107AF20020202020202020202020202020202000A4
:107B020053657269616C206B696C6C657220202010
:107B120070726F63757261646F20202020202020B4
:107B2200647572616E7465203230206469617320FD
:107B3200666F69206D6F72746F20004C616E6361B5
:107B42006D656E746F20646F2020207072696D65A0
:107B520069726F20736174656C69746520746F74E7
:107B6200616C6D656E74652020202062726173699C
:107B72006C6569726F004573746120652061206CC9
:107B8200696E68612020646F2074656D706F206477
:107B92006F7320202020756C74696D6F73203130F3
:107BA2003020616E6F73646F2042726173696C0082
:107BB2004D696C6167726520656E636F6E6F6D698A
:107BC200636F2C206372657363696D656E746F20D9
:107BD200656D2031312C3220706F722063656E74B6
:107BE2006F00496E73746162696C696461646520D7
:107BF2006E6F676F7665726E6F2C20736175646548
:107C020020206520656475636163616F20202020F8
:107C120020005265766F676163616F20646F204157
:107C2200492D352065206465206F7574726F73204D
:107C320061746F7320646120646974616475726138
:107C4200004361736F732064652020202020202070
:107C520020696E746F7869636163616F2070656C0F
:107C62006163657276656A61204261636B65720069
:107C720042726173696C696120696E6175677572C0
:107C820061646120706F72204A757363656C696EFE
:107C92006F204B7562697473636865636B0043653B
:107CA2006E74656E61732064652064656E756E63C3
:107CB200696173206465206361736F73206465205A
:107CC200746F7274757261005265766F6C75636160
:107CD2006F20636F6E737469747563696F6E616C24
:107CE2006973746120656D2053616F205061756CFA
:107CF2006F0046756E646163616F20646F2070610E
:107D0200727469646F20636F6D756E69737461203C
:107D1200646F2062726173696C004C756C6120E95A
:107D220020656C6569746F20707265736964656E35
:107D3200746520646120526570FA626C6963610047
:107D420050726F6D756C6761646120612020202024
:107D5200436F6E73746974756963616F2064652023
:107D62003139333400496E6963696F206469746123
:107D720064757461206D696C69746172206E6F2024
:107D820062726173696C00436F6E67656C616D65E9
:107D92006E746F20646520636F6E74617320706F00
:107DA2007220436F6C6C6F72005175656272612054
:107DB200646120626F6C73612064652076616C6F10
:107DC200726573206465204E5900496E6963696F5C
:107DD20020646120736567756E64612067756572E2
:107DE2007261206D756E6469616C00436F6E7374AD
:107DF2006974756963616F20646120646974617478
:107E0200757261206D696C6974617200496D70658B
:107E12006163686D656E742064652044696C6D6190
:107E220020526F75737365666600496E7374697468
:107E3200756963616F20646F2073616C6172696F31
:107E4200206D696E696D6F0042726173696C2067A3
:107E5200616E6861206120636F706120646F206DC4
:107E6200756E646F00496D706C616E746163616FF1
:107E720020646F2045737461646F204E6F766F00CB
:107E8200456C656963616F2064652044696C6D614E
:107E920020526F75737365666600526564656D6F17
:107EA20063726174697A6163616F646F20427261A7
:107EB20073696C00456C656963616F206465204A73
:107EC20061697220426F6C736F6E61726F005375DD
:107ED200696369646F20646520476574756C696FB6
:107EE2002056617267617300436F6C6C6F7220651C
:107EF2006C6569746F20707265736964656E746510
:107F02000046696D20646120646974616475726100
:107F1200206D696C697461720046696D206461202C
:107F2200736567756E6461202067756572726100A2
:107F320046696D2064612045726120202020202046
:107F420056617267617300496E6963696F2064618B
:107F520020457261205661726761730043726961E4
:107F620063616F20646120506574726F6272617325
:107F720000496D706C616E746163616F20646F2083
:107F820041492D350046756E646163616F206461FD
:107F9200204F4E55202000446573656E766F6C76D7
:107FA20069646F20506F72004D617269616E612069
:107FB200546F6E696E69002020204F636F72726980
:107FC200646F732000496E73697261206F20416E85
:107FD2006F3A00202020202056696E646F00202016
:107FE2002020204661746F73002020202020204230
:0E7FF200656D0020202020202046696D0000D3
:020000040020DA
:08000000FFFFFFFFFFFFFFFF00
:020000040030CA
:0E000000FF021F00FF8381FF0FC00FE00F40C3
:00000001FF
